{
  "contractName": "SupplyChain",
  "abi": [
    {
      "inputs": [],
      "stateMutability": "nonpayable",
      "type": "constructor"
    },
    {
      "anonymous": false,
      "inputs": [
        {
          "indexed": false,
          "internalType": "uint256",
          "name": "upc",
          "type": "uint256"
        }
      ],
      "name": "BoughtByDistributor",
      "type": "event"
    },
    {
      "anonymous": false,
      "inputs": [
        {
          "indexed": false,
          "internalType": "uint256",
          "name": "lotNumber",
          "type": "uint256"
        }
      ],
      "name": "BoughtByManufacturer",
      "type": "event"
    },
    {
      "anonymous": false,
      "inputs": [
        {
          "indexed": true,
          "internalType": "address",
          "name": "account",
          "type": "address"
        }
      ],
      "name": "ConsumerAdded",
      "type": "event"
    },
    {
      "anonymous": false,
      "inputs": [
        {
          "indexed": true,
          "internalType": "address",
          "name": "account",
          "type": "address"
        }
      ],
      "name": "ConsumerRemoved",
      "type": "event"
    },
    {
      "anonymous": false,
      "inputs": [
        {
          "indexed": true,
          "internalType": "address",
          "name": "account",
          "type": "address"
        }
      ],
      "name": "DistributorAdded",
      "type": "event"
    },
    {
      "anonymous": false,
      "inputs": [
        {
          "indexed": true,
          "internalType": "address",
          "name": "account",
          "type": "address"
        }
      ],
      "name": "DistributorRemoved",
      "type": "event"
    },
    {
      "anonymous": false,
      "inputs": [
        {
          "indexed": true,
          "internalType": "address",
          "name": "account",
          "type": "address"
        }
      ],
      "name": "FarmerAdded",
      "type": "event"
    },
    {
      "anonymous": false,
      "inputs": [
        {
          "indexed": true,
          "internalType": "address",
          "name": "account",
          "type": "address"
        }
      ],
      "name": "FarmerRemoved",
      "type": "event"
    },
    {
      "anonymous": false,
      "inputs": [
        {
          "indexed": false,
          "internalType": "uint256",
          "name": "lotNumber",
          "type": "uint256"
        }
      ],
      "name": "Harvested",
      "type": "event"
    },
    {
      "anonymous": false,
      "inputs": [
        {
          "indexed": true,
          "internalType": "address",
          "name": "account",
          "type": "address"
        }
      ],
      "name": "ManufacturerAdded",
      "type": "event"
    },
    {
      "anonymous": false,
      "inputs": [
        {
          "indexed": true,
          "internalType": "address",
          "name": "account",
          "type": "address"
        }
      ],
      "name": "ManufacturerRemoved",
      "type": "event"
    },
    {
      "anonymous": false,
      "inputs": [
        {
          "indexed": false,
          "internalType": "uint256",
          "name": "lotNumber",
          "type": "uint256"
        }
      ],
      "name": "Packed",
      "type": "event"
    },
    {
      "anonymous": false,
      "inputs": [
        {
          "indexed": false,
          "internalType": "uint256",
          "name": "upc",
          "type": "uint256"
        }
      ],
      "name": "PackedByManufacturer",
      "type": "event"
    },
    {
      "anonymous": false,
      "inputs": [
        {
          "indexed": false,
          "internalType": "uint256",
          "name": "upc",
          "type": "uint256"
        }
      ],
      "name": "Placed",
      "type": "event"
    },
    {
      "anonymous": false,
      "inputs": [
        {
          "indexed": false,
          "internalType": "uint256",
          "name": "upc",
          "type": "uint256"
        }
      ],
      "name": "Processed",
      "type": "event"
    },
    {
      "anonymous": false,
      "inputs": [
        {
          "indexed": false,
          "internalType": "uint256",
          "name": "upc",
          "type": "uint256"
        }
      ],
      "name": "Purchased",
      "type": "event"
    },
    {
      "anonymous": false,
      "inputs": [
        {
          "indexed": false,
          "internalType": "uint256",
          "name": "upc",
          "type": "uint256"
        }
      ],
      "name": "ReceivedByRetailer",
      "type": "event"
    },
    {
      "anonymous": false,
      "inputs": [
        {
          "indexed": true,
          "internalType": "address",
          "name": "account",
          "type": "address"
        }
      ],
      "name": "RetailerAdded",
      "type": "event"
    },
    {
      "anonymous": false,
      "inputs": [
        {
          "indexed": true,
          "internalType": "address",
          "name": "account",
          "type": "address"
        }
      ],
      "name": "RetailerRemoved",
      "type": "event"
    },
    {
      "anonymous": false,
      "inputs": [
        {
          "indexed": false,
          "internalType": "uint256",
          "name": "upc",
          "type": "uint256"
        }
      ],
      "name": "Shipped",
      "type": "event"
    },
    {
      "anonymous": false,
      "inputs": [
        {
          "indexed": true,
          "internalType": "address",
          "name": "oldOwner",
          "type": "address"
        },
        {
          "indexed": true,
          "internalType": "address",
          "name": "newOwner",
          "type": "address"
        }
      ],
      "name": "TransferOwnership",
      "type": "event"
    },
    {
      "inputs": [
        {
          "internalType": "address",
          "name": "account",
          "type": "address"
        }
      ],
      "name": "addConsumer",
      "outputs": [],
      "stateMutability": "nonpayable",
      "type": "function"
    },
    {
      "inputs": [
        {
          "internalType": "address",
          "name": "account",
          "type": "address"
        }
      ],
      "name": "addDistributor",
      "outputs": [],
      "stateMutability": "nonpayable",
      "type": "function"
    },
    {
      "inputs": [
        {
          "internalType": "address",
          "name": "account",
          "type": "address"
        }
      ],
      "name": "addFarmer",
      "outputs": [],
      "stateMutability": "nonpayable",
      "type": "function"
    },
    {
      "inputs": [
        {
          "internalType": "address",
          "name": "account",
          "type": "address"
        }
      ],
      "name": "addManufacturer",
      "outputs": [],
      "stateMutability": "nonpayable",
      "type": "function"
    },
    {
      "inputs": [
        {
          "internalType": "address",
          "name": "account",
          "type": "address"
        }
      ],
      "name": "addRetailer",
      "outputs": [],
      "stateMutability": "nonpayable",
      "type": "function"
    },
    {
      "inputs": [
        {
          "internalType": "address",
          "name": "account",
          "type": "address"
        }
      ],
      "name": "isConsumer",
      "outputs": [
        {
          "internalType": "bool",
          "name": "",
          "type": "bool"
        }
      ],
      "stateMutability": "view",
      "type": "function",
      "constant": true
    },
    {
      "inputs": [
        {
          "internalType": "address",
          "name": "account",
          "type": "address"
        }
      ],
      "name": "isDistributor",
      "outputs": [
        {
          "internalType": "bool",
          "name": "",
          "type": "bool"
        }
      ],
      "stateMutability": "view",
      "type": "function",
      "constant": true
    },
    {
      "inputs": [
        {
          "internalType": "address",
          "name": "account",
          "type": "address"
        }
      ],
      "name": "isFarmer",
      "outputs": [
        {
          "internalType": "bool",
          "name": "",
          "type": "bool"
        }
      ],
      "stateMutability": "view",
      "type": "function",
      "constant": true
    },
    {
      "inputs": [
        {
          "internalType": "address",
          "name": "account",
          "type": "address"
        }
      ],
      "name": "isManufacturer",
      "outputs": [
        {
          "internalType": "bool",
          "name": "",
          "type": "bool"
        }
      ],
      "stateMutability": "view",
      "type": "function",
      "constant": true
    },
    {
      "inputs": [],
      "name": "isOwner",
      "outputs": [
        {
          "internalType": "bool",
          "name": "",
          "type": "bool"
        }
      ],
      "stateMutability": "view",
      "type": "function",
      "constant": true
    },
    {
      "inputs": [
        {
          "internalType": "address",
          "name": "account",
          "type": "address"
        }
      ],
      "name": "isRetailer",
      "outputs": [
        {
          "internalType": "bool",
          "name": "",
          "type": "bool"
        }
      ],
      "stateMutability": "view",
      "type": "function",
      "constant": true
    },
    {
      "inputs": [],
      "name": "kill",
      "outputs": [],
      "stateMutability": "nonpayable",
      "type": "function"
    },
    {
      "inputs": [],
      "name": "owner",
      "outputs": [
        {
          "internalType": "address",
          "name": "",
          "type": "address"
        }
      ],
      "stateMutability": "view",
      "type": "function",
      "constant": true
    },
    {
      "inputs": [],
      "name": "renounceConsumer",
      "outputs": [],
      "stateMutability": "nonpayable",
      "type": "function"
    },
    {
      "inputs": [],
      "name": "renounceDistributor",
      "outputs": [],
      "stateMutability": "nonpayable",
      "type": "function"
    },
    {
      "inputs": [],
      "name": "renounceFarmer",
      "outputs": [],
      "stateMutability": "nonpayable",
      "type": "function"
    },
    {
      "inputs": [],
      "name": "renounceManufacturer",
      "outputs": [],
      "stateMutability": "nonpayable",
      "type": "function"
    },
    {
      "inputs": [],
      "name": "renounceOwnership",
      "outputs": [],
      "stateMutability": "nonpayable",
      "type": "function"
    },
    {
      "inputs": [],
      "name": "renounceRetailer",
      "outputs": [],
      "stateMutability": "nonpayable",
      "type": "function"
    },
    {
      "inputs": [
        {
          "internalType": "address payable",
          "name": "newOwner",
          "type": "address"
        }
      ],
      "name": "transferOwnership",
      "outputs": [],
      "stateMutability": "nonpayable",
      "type": "function"
    },
    {
      "inputs": [
        {
          "internalType": "uint256",
          "name": "_originFarmID",
          "type": "uint256"
        },
        {
          "internalType": "string",
          "name": "_originFarmName",
          "type": "string"
        },
        {
          "internalType": "string",
          "name": "_originFarmLatitude",
          "type": "string"
        },
        {
          "internalType": "string",
          "name": "_originFarmLongitude",
          "type": "string"
        },
        {
          "internalType": "string",
          "name": "_materialName",
          "type": "string"
        },
        {
          "internalType": "uint256",
          "name": "_materialID",
          "type": "uint256"
        },
        {
          "internalType": "uint256",
          "name": "_rawMaterialMaxQuantity",
          "type": "uint256"
        }
      ],
      "name": "harvestItem",
      "outputs": [],
      "stateMutability": "nonpayable",
      "type": "function"
    },
    {
      "inputs": [
        {
          "internalType": "uint256",
          "name": "_lotNumber",
          "type": "uint256"
        },
        {
          "internalType": "uint256",
          "name": "_quantity",
          "type": "uint256"
        },
        {
          "internalType": "uint256",
          "name": "_price",
          "type": "uint256"
        }
      ],
      "name": "packItem",
      "outputs": [],
      "stateMutability": "nonpayable",
      "type": "function"
    },
    {
      "inputs": [
        {
          "internalType": "uint256",
          "name": "_lotNumber",
          "type": "uint256"
        }
      ],
      "name": "buyMaterial",
      "outputs": [],
      "stateMutability": "payable",
      "type": "function",
      "payable": true
    },
    {
      "inputs": [
        {
          "internalType": "uint256",
          "name": "_upc",
          "type": "uint256"
        },
        {
          "internalType": "uint256[]",
          "name": "_lotNumbers",
          "type": "uint256[]"
        },
        {
          "internalType": "string",
          "name": "_productName",
          "type": "string"
        }
      ],
      "name": "processProduct",
      "outputs": [],
      "stateMutability": "nonpayable",
      "type": "function"
    },
    {
      "inputs": [
        {
          "internalType": "uint256",
          "name": "_upc",
          "type": "uint256"
        },
        {
          "internalType": "uint256",
          "name": "_productBasePrice",
          "type": "uint256"
        }
      ],
      "name": "packProduct",
      "outputs": [],
      "stateMutability": "nonpayable",
      "type": "function"
    },
    {
      "inputs": [
        {
          "internalType": "uint256",
          "name": "_upc",
          "type": "uint256"
        }
      ],
      "name": "buyProduct",
      "outputs": [],
      "stateMutability": "payable",
      "type": "function",
      "payable": true
    },
    {
      "inputs": [
        {
          "internalType": "uint256",
          "name": "_upc",
          "type": "uint256"
        }
      ],
      "name": "shipProduct",
      "outputs": [],
      "stateMutability": "nonpayable",
      "type": "function"
    },
    {
      "inputs": [
        {
          "internalType": "uint256",
          "name": "_upc",
          "type": "uint256"
        }
      ],
      "name": "receiveProduct",
      "outputs": [],
      "stateMutability": "nonpayable",
      "type": "function"
    },
    {
      "inputs": [
        {
          "internalType": "uint256",
          "name": "_upc",
          "type": "uint256"
        },
        {
          "internalType": "uint256",
          "name": "_productFinalPrice",
          "type": "uint256"
        }
      ],
      "name": "placeProduct",
      "outputs": [],
      "stateMutability": "nonpayable",
      "type": "function"
    },
    {
      "inputs": [
        {
          "internalType": "uint256",
          "name": "_upc",
          "type": "uint256"
        }
      ],
      "name": "purchaseProduct",
      "outputs": [],
      "stateMutability": "payable",
      "type": "function",
      "payable": true
    },
    {
      "inputs": [
        {
          "internalType": "uint256",
          "name": "_lotNumber",
          "type": "uint256"
        }
      ],
      "name": "fetchRawMaterial",
      "outputs": [
        {
          "internalType": "string",
          "name": "farmName",
          "type": "string"
        },
        {
          "internalType": "string",
          "name": "farmLatitude",
          "type": "string"
        },
        {
          "internalType": "string",
          "name": "farmLongitude",
          "type": "string"
        },
        {
          "internalType": "string",
          "name": "materialName",
          "type": "string"
        },
        {
          "internalType": "uint256",
          "name": "harvestTime",
          "type": "uint256"
        }
      ],
      "stateMutability": "view",
      "type": "function",
      "constant": true
    },
    {
      "inputs": [
        {
          "internalType": "uint256",
          "name": "_upc",
          "type": "uint256"
        }
      ],
      "name": "fetchProductLots",
      "outputs": [
        {
          "internalType": "uint256[]",
          "name": "lotNumbers",
          "type": "uint256[]"
        }
      ],
      "stateMutability": "view",
      "type": "function",
      "constant": true
    }
  ],
  "bytecode": "0x60806040523480156200001157600080fd5b50336000806101000a81548173ffffffffffffffffffffffffffffffffffffffff021916908373ffffffffffffffffffffffffffffffffffffffff16021790555060008054906101000a900473ffffffffffffffffffffffffffffffffffffffff1673ffffffffffffffffffffffffffffffffffffffff16600073ffffffffffffffffffffffffffffffffffffffff167f5c486528ec3e3f0ea91181cff8116f02bfa350e03b8b6f12e00765adbb5af85c60405160405180910390a3620000de336200013860201b60201c565b620000ef336200019960201b60201c565b6200010033620001fa60201b60201c565b62000111336200025b60201b60201c565b6200012233620002bc60201b60201c565b6001600781905550600160068190555062000627565b620001538160016200031d60201b620030101790919060201c565b8073ffffffffffffffffffffffffffffffffffffffff167f2e0ded4123377a3c2bc9a26f1717655a129e2f20752924d42e730ec89c83dbd060405160405180910390a250565b620001b48160026200031d60201b620030101790919060201c565b8073ffffffffffffffffffffffffffffffffffffffff167fddbf200aa634dc3fb81cfd68583dd1040d1c751d335e1d86b631bde3e977fea860405160405180910390a250565b620002158160036200031d60201b620030101790919060201c565b8073ffffffffffffffffffffffffffffffffffffffff167f71ae26cad02663e3d92efd6ec56031a80d74a20c0ab4183faa8bf262261c9baa60405160405180910390a250565b620002768160046200031d60201b620030101790919060201c565b8073ffffffffffffffffffffffffffffffffffffffff167f561138658ca49a8540dc70dcfe64c9026c1c5b9344642242dd6562970f9c127860405160405180910390a250565b620002d78160056200031d60201b620030101790919060201c565b8073ffffffffffffffffffffffffffffffffffffffff167f28b26e7a3d20aedbc5f8f2ebf7da671c0491723a2b78f47a097b0e46dee0714260405160405180910390a250565b600073ffffffffffffffffffffffffffffffffffffffff168173ffffffffffffffffffffffffffffffffffffffff16036200038f576040517f08c379a000000000000000000000000000000000000000000000000000000000815260040162000386906200056d565b60405180910390fd5b620003a182826200044260201b60201c565b15620003e4576040517f08c379a0000000000000000000000000000000000000000000000000000000008152600401620003db9062000605565b60405180910390fd5b60018260000160008373ffffffffffffffffffffffffffffffffffffffff1673ffffffffffffffffffffffffffffffffffffffff16815260200190815260200160002060006101000a81548160ff0219169083151502179055505050565b60008073ffffffffffffffffffffffffffffffffffffffff168273ffffffffffffffffffffffffffffffffffffffff1603620004b5576040517f08c379a0000000000000000000000000000000000000000000000000000000008152600401620004ac906200056d565b60405180910390fd5b8260000160008373ffffffffffffffffffffffffffffffffffffffff1673ffffffffffffffffffffffffffffffffffffffff16815260200190815260200160002060009054906101000a900460ff16905092915050565b600082825260208201905092915050565b7f416464726573732063616e6e6f74206265207a65726f20616464726573730000600082015250565b600062000555601e836200050c565b915062000562826200051d565b602082019050919050565b60006020820190508181036000830152620005888162000546565b9050919050565b7f54686973206164647265737320616c726561647920686173207468697320726f60008201527f6c65000000000000000000000000000000000000000000000000000000000000602082015250565b6000620005ed6022836200050c565b9150620005fa826200058f565b604082019050919050565b600060208201905081810360008301526200062081620005de565b9050919050565b61507180620006376000396000f3fe6080604052600436106101e35760003560e01c806380c3f96d11610102578063a2c7565111610095578063db0e6a2f11610064578063db0e6a2f1461065f578063de07f34e14610676578063e03d96a91461068d578063f2fde38b146106ce576101e3565b8063a2c75651146105b4578063a896bdd7146105dd578063aa7b3a01146105f9578063b942906914610622576101e3565b80638da5cb5b116100d15780638da5cb5b146104f85780638ec4f505146105235780638f0c86fa1461054c5780638f32d59b14610589576101e3565b806380c3f96d1461045f57806380fc0ce414610488578063834ff7391461049f5780638642269e146104dc576101e3565b80634b2e5c291161017a578063644241db11610149578063644241db146103cb578063715018a6146103e25780637250e224146103f95780637c34890f14610422576101e3565b80634b2e5c29146103255780635da09b881461034e5780635f8a5afa1461038b57806361e6982d146103b4576101e3565b80632927d1d9116101b65780632927d1d9146102a057806329d78328146102c957806338e76a03146102f257806341c0e1b51461030e576101e3565b8063112940f9146101e857806317d4a491146102115780631dbca97c1461024e5780632134976b14610277575b600080fd5b3480156101f457600080fd5b5061020f600480360381019061020a9190613ac8565b6106f7565b005b34801561021d57600080fd5b5061023860048036038101906102339190613ac8565b610756565b6040516102459190613b10565b60405180910390f35b34801561025a57600080fd5b5061027560048036038101906102709190613b61565b610773565b005b34801561028357600080fd5b5061029e60048036038101906102999190613ce7565b610981565b005b3480156102ac57600080fd5b506102c760048036038101906102c29190613df9565b610d0c565b005b3480156102d557600080fd5b506102f060048036038101906102eb9190613df9565b610f10565b005b61030c60048036038101906103079190613df9565b6110f4565b005b34801561031a57600080fd5b506103236113df565b005b34801561033157600080fd5b5061034c60048036038101906103479190613b61565b61146d565b005b34801561035a57600080fd5b5061037560048036038101906103709190613ac8565b61167b565b6040516103829190613b10565b60405180910390f35b34801561039757600080fd5b506103b260048036038101906103ad9190613ac8565b611698565b005b3480156103c057600080fd5b506103c96116f7565b005b3480156103d757600080fd5b506103e0611702565b005b3480156103ee57600080fd5b506103f761170d565b005b34801561040557600080fd5b50610420600480360381019061041b9190613ac8565b611812565b005b34801561042e57600080fd5b5061044960048036038101906104449190613df9565b611871565b6040516104569190613ee4565b60405180910390f35b34801561046b57600080fd5b5061048660048036038101906104819190613ac8565b611ba9565b005b34801561049457600080fd5b5061049d611bfd565b005b3480156104ab57600080fd5b506104c660048036038101906104c19190613ac8565b611c08565b6040516104d39190613b10565b60405180910390f35b6104f660048036038101906104f19190613df9565b611c25565b005b34801561050457600080fd5b5061050d611fa9565b60405161051a9190613f15565b60405180910390f35b34801561052f57600080fd5b5061054a60048036038101906105459190613ac8565b611fd2565b005b34801561055857600080fd5b50610573600480360381019061056e9190613ac8565b612031565b6040516105809190613b10565b60405180910390f35b34801561059557600080fd5b5061059e61204e565b6040516105ab9190613b10565b60405180910390f35b3480156105c057600080fd5b506105db60048036038101906105d69190613ff8565b6120a5565b005b6105f760048036038101906105f29190613df9565b612536565b005b34801561060557600080fd5b50610620600480360381019061061b9190614083565b6128ba565b005b34801561062e57600080fd5b5061064960048036038101906106449190613ac8565b612b66565b6040516106569190613b10565b60405180910390f35b34801561066b57600080fd5b50610674612b83565b005b34801561068257600080fd5b5061068b612b8e565b005b34801561069957600080fd5b506106b460048036038101906106af9190613df9565b612b99565b6040516106c595949392919061416d565b60405180910390f35b3480156106da57600080fd5b506106f560048036038101906106f0919061421a565b612fbd565b005b61070b33600561312790919063ffffffff16565b61074a576040517f08c379a0000000000000000000000000000000000000000000000000000000008152600401610741906142b9565b60405180910390fd5b610753816131ee565b50565b600061076c82600461312790919063ffffffff16565b9050919050565b61078733600461312790919063ffffffff16565b6107c6576040517f08c379a00000000000000000000000000000000000000000000000000000000081526004016107bd9061434b565b60405180910390fd5b81600360098111156107db576107da61436b565b5b60086000838152602001908152602001600020600c0160009054906101000a900460ff1660098111156108115761081061436b565b5b14610851576040517f08c379a00000000000000000000000000000000000000000000000000000000081526004016108489061440c565b60405180910390fd5b6008600084815260200190815260200160002060020160009054906101000a900473ffffffffffffffffffffffffffffffffffffffff168073ffffffffffffffffffffffffffffffffffffffff163373ffffffffffffffffffffffffffffffffffffffff16146108f6576040517f08c379a00000000000000000000000000000000000000000000000000000000081526004016108ed9061449e565b60405180910390fd5b6000600860008681526020019081526020016000209050838160090181905550600481600c0160006101000a81548160ff0219169083600981111561093e5761093d61436b565b5b02179055507f090f384267f8609b480a5aec2b9f44790666dde0be5128881197a665435889f68560405161097291906144be565b60405180910390a15050505050565b61098a33612b66565b6109c9576040517f08c379a00000000000000000000000000000000000000000000000000000000081526004016109c09061454b565b60405180910390fd5b6109d16137b4565b33816000019073ffffffffffffffffffffffffffffffffffffffff16908173ffffffffffffffffffffffffffffffffffffffff168152505033816020019073ffffffffffffffffffffffffffffffffffffffff16908173ffffffffffffffffffffffffffffffffffffffff1681525050868160a0018190525087816080018181525050858160c00181905250848160e00181905250838161010001819052508281610120018181525050818161014001818152505042816101a00181815250506000816101a00151848a610aa5919061459a565b610aaf919061459a565b9050808260600181815250506000826101c001906009811115610ad557610ad461436b565b5b90816009811115610ae957610ae861436b565b5b81525050816009600083815260200190815260200160002060008201518160000160006101000a81548173ffffffffffffffffffffffffffffffffffffffff021916908373ffffffffffffffffffffffffffffffffffffffff16021790555060208201518160010160006101000a81548173ffffffffffffffffffffffffffffffffffffffff021916908373ffffffffffffffffffffffffffffffffffffffff16021790555060408201518160020160006101000a81548173ffffffffffffffffffffffffffffffffffffffff021916908373ffffffffffffffffffffffffffffffffffffffff160217905550606082015181600301556080820151816004015560a0820151816005019080519060200190610c0692919061387e565b5060c0820151816006019080519060200190610c2392919061387e565b5060e0820151816007019080519060200190610c4092919061387e565b50610100820151816008019080519060200190610c5e92919061387e565b50610120820151816009015561014082015181600a015561016082015181600b015561018082015181600c01556101a082015181600d01556101c082015181600e0160006101000a81548160ff02191690836009811115610cc257610cc161436b565b5b02179055509050507f8e55ccfc9778ff8eba1646d765cf1982537ce0f9257054a17b48aad74525018381604051610cf991906144be565b60405180910390a1505050505050505050565b610d2033600261312790919063ffffffff16565b610d5f576040517f08c379a0000000000000000000000000000000000000000000000000000000008152600401610d5690614662565b60405180910390fd5b8060056009811115610d7457610d7361436b565b5b60086000838152602001908152602001600020600c0160009054906101000a900460ff166009811115610daa57610da961436b565b5b14610dea576040517f08c379a0000000000000000000000000000000000000000000000000000000008152600401610de1906146f4565b60405180910390fd5b6008600083815260200190815260200160002060030160009054906101000a900473ffffffffffffffffffffffffffffffffffffffff168073ffffffffffffffffffffffffffffffffffffffff163373ffffffffffffffffffffffffffffffffffffffff1614610e8f576040517f08c379a0000000000000000000000000000000000000000000000000000000008152600401610e869061449e565b60405180910390fd5b6000600860008581526020019081526020016000209050600681600c0160006101000a81548160ff02191690836009811115610ece57610ecd61436b565b5b02179055507ff00b9a5725b80c54016f42114f6ed7792d22eecb116011c4afac29c57bef6c9584604051610f0291906144be565b60405180910390a150505050565b610f2433600361312790919063ffffffff16565b610f63576040517f08c379a0000000000000000000000000000000000000000000000000000000008152600401610f5a90614786565b60405180910390fd5b8060066009811115610f7857610f7761436b565b5b60086000838152602001908152602001600020600c0160009054906101000a900460ff166009811115610fae57610fad61436b565b5b14610fee576040517f08c379a0000000000000000000000000000000000000000000000000000000008152600401610fe590614818565b60405180910390fd5b6000600860008481526020019081526020016000209050338160020160006101000a81548173ffffffffffffffffffffffffffffffffffffffff021916908373ffffffffffffffffffffffffffffffffffffffff160217905550600781600c0160006101000a81548160ff021916908360098111156110705761106f61436b565b5b0217905550338160050160006101000a81548173ffffffffffffffffffffffffffffffffffffffff021916908373ffffffffffffffffffffffffffffffffffffffff1602179055507f322f34e90f2269750b3e28178631d975cc678db36f21098fe548b7f755ce0bd0836040516110e791906144be565b60405180910390a1505050565b61110833600561312790919063ffffffff16565b611147576040517f08c379a000000000000000000000000000000000000000000000000000000000815260040161113e906142b9565b60405180910390fd5b806008600981111561115c5761115b61436b565b5b60086000838152602001908152602001600020600c0160009054906101000a900460ff1660098111156111925761119161436b565b5b146111d2576040517f08c379a00000000000000000000000000000000000000000000000000000000081526004016111c990614884565b60405180910390fd5b60086000838152602001908152602001600020600a01548034101561122c576040517f08c379a000000000000000000000000000000000000000000000000000000000815260040161122390614916565b60405180910390fd5b826000600860008681526020019081526020016000209050338160020160006101000a81548173ffffffffffffffffffffffffffffffffffffffff021916908373ffffffffffffffffffffffffffffffffffffffff160217905550600981600c0160006101000a81548160ff021916908360098111156112af576112ae61436b565b5b0217905550338160060160006101000a81548173ffffffffffffffffffffffffffffffffffffffff021916908373ffffffffffffffffffffffffffffffffffffffff1602179055507f653d56639fee6b566a5c804764e9689de38645f0b733df89a36a1b7b42173dd88560405161132691906144be565b60405180910390a150600060086000838152602001908152602001600020600a01549050600081346113589190614936565b90506008600084815260200190815260200160002060060160009054906101000a900473ffffffffffffffffffffffffffffffffffffffff1673ffffffffffffffffffffffffffffffffffffffff166108fc829081150290604051600060405180830381858888f193505050501580156113d6573d6000803e3d6000fd5b50505050505050565b60008054906101000a900473ffffffffffffffffffffffffffffffffffffffff1673ffffffffffffffffffffffffffffffffffffffff163373ffffffffffffffffffffffffffffffffffffffff160361146b5760008054906101000a900473ffffffffffffffffffffffffffffffffffffffff1673ffffffffffffffffffffffffffffffffffffffff16ff5b565b61148133600361312790919063ffffffff16565b6114c0576040517f08c379a00000000000000000000000000000000000000000000000000000000081526004016114b790614786565b60405180910390fd5b81600760098111156114d5576114d461436b565b5b60086000838152602001908152602001600020600c0160009054906101000a900460ff16600981111561150b5761150a61436b565b5b1461154b576040517f08c379a0000000000000000000000000000000000000000000000000000000008152600401611542906149dc565b60405180910390fd5b6008600084815260200190815260200160002060020160009054906101000a900473ffffffffffffffffffffffffffffffffffffffff168073ffffffffffffffffffffffffffffffffffffffff163373ffffffffffffffffffffffffffffffffffffffff16146115f0576040517f08c379a00000000000000000000000000000000000000000000000000000000081526004016115e79061449e565b60405180910390fd5b60006008600086815260200190815260200160002090508381600a0181905550600881600c0160006101000a81548160ff021916908360098111156116385761163761436b565b5b02179055507f44de2d07540d425d94a436148fbd87b44fa17f09d5f72caeee17b7b93af9a6048560405161166c91906144be565b60405180910390a15050505050565b600061169182600361312790919063ffffffff16565b9050919050565b6116ac33600461312790919063ffffffff16565b6116eb576040517f08c379a00000000000000000000000000000000000000000000000000000000081526004016116e29061434b565b60405180910390fd5b6116f481613248565b50565b611700336132a2565b565b61170b336132fc565b565b61171561204e565b611754576040517f08c379a000000000000000000000000000000000000000000000000000000000815260040161174b90614a6e565b60405180910390fd5b600073ffffffffffffffffffffffffffffffffffffffff1660008054906101000a900473ffffffffffffffffffffffffffffffffffffffff1673ffffffffffffffffffffffffffffffffffffffff167f5c486528ec3e3f0ea91181cff8116f02bfa350e03b8b6f12e00765adbb5af85c60405160405180910390a360008060006101000a81548173ffffffffffffffffffffffffffffffffffffffff021916908373ffffffffffffffffffffffffffffffffffffffff160217905550565b61182633600261312790919063ffffffff16565b611865576040517f08c379a000000000000000000000000000000000000000000000000000000000815260040161185c90614662565b60405180910390fd5b61186e81613356565b50565b6060600060086000848152602001908152602001600020604051806101a001604052908160008201548152602001600182015481526020016002820160009054906101000a900473ffffffffffffffffffffffffffffffffffffffff1673ffffffffffffffffffffffffffffffffffffffff1673ffffffffffffffffffffffffffffffffffffffff1681526020016003820160009054906101000a900473ffffffffffffffffffffffffffffffffffffffff1673ffffffffffffffffffffffffffffffffffffffff1673ffffffffffffffffffffffffffffffffffffffff1681526020016004820160009054906101000a900473ffffffffffffffffffffffffffffffffffffffff1673ffffffffffffffffffffffffffffffffffffffff1673ffffffffffffffffffffffffffffffffffffffff1681526020016005820160009054906101000a900473ffffffffffffffffffffffffffffffffffffffff1673ffffffffffffffffffffffffffffffffffffffff1673ffffffffffffffffffffffffffffffffffffffff1681526020016006820160009054906101000a900473ffffffffffffffffffffffffffffffffffffffff1673ffffffffffffffffffffffffffffffffffffffff1673ffffffffffffffffffffffffffffffffffffffff16815260200160078201548152602001600882018054611a7090614abd565b80601f0160208091040260200160405190810160405280929190818152602001828054611a9c90614abd565b8015611ae95780601f10611abe57610100808354040283529160200191611ae9565b820191906000526020600020905b815481529060010190602001808311611acc57829003601f168201915b5050505050815260200160098201548152602001600a8201548152602001600b8201805480602002602001604051908101604052809291908181526020018280548015611b5557602002820191906000526020600020905b815481526020019060010190808311611b41575b50505050508152602001600c820160009054906101000a900460ff166009811115611b8357611b8261436b565b5b6009811115611b9557611b9461436b565b5b815250509050806101600151915050919050565b611bb233612b66565b611bf1576040517f08c379a0000000000000000000000000000000000000000000000000000000008152600401611be89061454b565b60405180910390fd5b611bfa816133b0565b50565b611c063361340a565b565b6000611c1e82600561312790919063ffffffff16565b9050919050565b611c3933600261312790919063ffffffff16565b611c78576040517f08c379a0000000000000000000000000000000000000000000000000000000008152600401611c6f90614662565b60405180910390fd5b8060046009811115611c8d57611c8c61436b565b5b60086000838152602001908152602001600020600c0160009054906101000a900460ff166009811115611cc357611cc261436b565b5b14611d03576040517f08c379a0000000000000000000000000000000000000000000000000000000008152600401611cfa90614b60565b60405180910390fd5b600860008381526020019081526020016000206009015480341015611d5d576040517f08c379a0000000000000000000000000000000000000000000000000000000008152600401611d5490614916565b60405180910390fd5b826000600860008681526020019081526020016000209050338160020160006101000a81548173ffffffffffffffffffffffffffffffffffffffff021916908373ffffffffffffffffffffffffffffffffffffffff160217905550338160030160006101000a81548173ffffffffffffffffffffffffffffffffffffffff021916908373ffffffffffffffffffffffffffffffffffffffff160217905550600581600c0160006101000a81548160ff02191690836009811115611e2357611e2261436b565b5b02179055506000600860008781526020019081526020016000206009015490506008600087815260200190815260200160002060040160009054906101000a900473ffffffffffffffffffffffffffffffffffffffff1673ffffffffffffffffffffffffffffffffffffffff166108fc829081150290604051600060405180830381858888f19350505050158015611ebf573d6000803e3d6000fd5b507fb64a650bd16fdcc58820f555d97b554e91b54798dad96aa8edc7bfbe9485603a86604051611eef91906144be565b60405180910390a1505060006008600083815260200190815260200160002060090154905060008134611f229190614936565b90506008600084815260200190815260200160002060030160009054906101000a900473ffffffffffffffffffffffffffffffffffffffff1673ffffffffffffffffffffffffffffffffffffffff166108fc829081150290604051600060405180830381858888f19350505050158015611fa0573d6000803e3d6000fd5b50505050505050565b60008060009054906101000a900473ffffffffffffffffffffffffffffffffffffffff16905090565b611fe633600361312790919063ffffffff16565b612025576040517f08c379a000000000000000000000000000000000000000000000000000000000815260040161201c90614786565b60405180910390fd5b61202e81613464565b50565b600061204782600261312790919063ffffffff16565b9050919050565b60008060009054906101000a900473ffffffffffffffffffffffffffffffffffffffff1673ffffffffffffffffffffffffffffffffffffffff163373ffffffffffffffffffffffffffffffffffffffff1614905090565b6120b933600461312790919063ffffffff16565b6120f8576040517f08c379a00000000000000000000000000000000000000000000000000000000081526004016120ef9061434b565b60405180910390fd5b8160005b81518110156121dc57600082828151811061211a57612119614b80565b5b602002602001015190503373ffffffffffffffffffffffffffffffffffffffff166009600083815260200190815260200160002060000160009054906101000a900473ffffffffffffffffffffffffffffffffffffffff1673ffffffffffffffffffffffffffffffffffffffff16146121c8576040517f08c379a00000000000000000000000000000000000000000000000000000000081526004016121bf90614c21565b60405180910390fd5b5080806121d490614c41565b9150506120fc565b506121e5613904565b33816040019073ffffffffffffffffffffffffffffffffffffffff16908173ffffffffffffffffffffffffffffffffffffffff168152505033816080019073ffffffffffffffffffffffffffffffffffffffff16908173ffffffffffffffffffffffffffffffffffffffff16815250508481602001818152505060075481600001818152505060075485612279919061459a565b8160e00181815250508381610160018190525082816101000181905250600381610180019060098111156122b0576122af61436b565b5b908160098111156122c4576122c361436b565b5b8152505060016007546122d7919061459a565b6007819055508060086000878152602001908152602001600020600082015181600001556020820151816001015560408201518160020160006101000a81548173ffffffffffffffffffffffffffffffffffffffff021916908373ffffffffffffffffffffffffffffffffffffffff16021790555060608201518160030160006101000a81548173ffffffffffffffffffffffffffffffffffffffff021916908373ffffffffffffffffffffffffffffffffffffffff16021790555060808201518160040160006101000a81548173ffffffffffffffffffffffffffffffffffffffff021916908373ffffffffffffffffffffffffffffffffffffffff16021790555060a08201518160050160006101000a81548173ffffffffffffffffffffffffffffffffffffffff021916908373ffffffffffffffffffffffffffffffffffffffff16021790555060c08201518160060160006101000a81548173ffffffffffffffffffffffffffffffffffffffff021916908373ffffffffffffffffffffffffffffffffffffffff16021790555060e0820151816007015561010082015181600801908051906020019061248f92919061387e565b50610120820151816009015561014082015181600a015561016082015181600b0190805190602001906124c39291906139ec565b5061018082015181600c0160006101000a81548160ff021916908360098111156124f0576124ef61436b565b5b02179055509050507f5afe3b1bf87069693c075da5c22a98d63d1aef98a30dbbe538d0781a98b77ee58560405161252791906144be565b60405180910390a15050505050565b61254a33600461312790919063ffffffff16565b612589576040517f08c379a00000000000000000000000000000000000000000000000000000000081526004016125809061434b565b60405180910390fd5b806001600981111561259e5761259d61436b565b5b60096000838152602001908152602001600020600e0160009054906101000a900460ff1660098111156125d4576125d361436b565b5b14612614576040517f08c379a000000000000000000000000000000000000000000000000000000000815260040161260b90614cd5565b60405180910390fd5b60096000838152602001908152602001600020600c01548034101561266e576040517f08c379a000000000000000000000000000000000000000000000000000000000815260040161266590614916565b60405180910390fd5b826000600960008681526020019081526020016000209050338160000160006101000a81548173ffffffffffffffffffffffffffffffffffffffff021916908373ffffffffffffffffffffffffffffffffffffffff160217905550338160020160006101000a81548173ffffffffffffffffffffffffffffffffffffffff021916908373ffffffffffffffffffffffffffffffffffffffff160217905550600281600e0160006101000a81548160ff021916908360098111156127345761273361436b565b5b0217905550600060096000878152602001908152602001600020600c015490506009600087815260200190815260200160002060010160009054906101000a900473ffffffffffffffffffffffffffffffffffffffff1673ffffffffffffffffffffffffffffffffffffffff166108fc829081150290604051600060405180830381858888f193505050501580156127d0573d6000803e3d6000fd5b507f129d151bafca5ab64a4f669845c185b6461bbe592ce9dada4cfac3bb9d3562de8660405161280091906144be565b60405180910390a15050600060096000838152602001908152602001600020600c01549050600081346128339190614936565b90506009600084815260200190815260200160002060020160009054906101000a900473ffffffffffffffffffffffffffffffffffffffff1673ffffffffffffffffffffffffffffffffffffffff166108fc829081150290604051600060405180830381858888f193505050501580156128b1573d6000803e3d6000fd5b50505050505050565b6128c333612b66565b612902576040517f08c379a00000000000000000000000000000000000000000000000000000000081526004016128f99061454b565b60405180910390fd5b82600060098111156129175761291661436b565b5b60096000838152602001908152602001600020600e0160009054906101000a900460ff16600981111561294d5761294c61436b565b5b1461298d576040517f08c379a000000000000000000000000000000000000000000000000000000000815260040161298490614d67565b60405180910390fd5b6009600085815260200190815260200160002060000160009054906101000a900473ffffffffffffffffffffffffffffffffffffffff168073ffffffffffffffffffffffffffffffffffffffff163373ffffffffffffffffffffffffffffffffffffffff1614612a32576040517f08c379a0000000000000000000000000000000000000000000000000000000008152600401612a299061449e565b60405180910390fd5b84848060096000848152602001908152602001600020600a01541015612a8d576040517f08c379a0000000000000000000000000000000000000000000000000000000008152600401612a8490614df9565b60405180910390fd5b60006009600089815260200190815260200160002090508681600b01819055508581600c0181905550600181600e0160006101000a81548160ff02191690836009811115612ade57612add61436b565b5b02179055507f9b3b66e2380b690bae22c73ef1428fb0c91e72fe14a4b6defa13035214187aff88604051612b1291906144be565b60405180910390a150600060096000848152602001908152602001600020600a015490508181612b429190614936565b60096000858152602001908152602001600020600a01819055505050505050505050565b6000612b7c82600161312790919063ffffffff16565b9050919050565b612b8c336134be565b565b612b9733613518565b565b60608060608060008060096000888152602001908152602001600020604051806101e00160405290816000820160009054906101000a900473ffffffffffffffffffffffffffffffffffffffff1673ffffffffffffffffffffffffffffffffffffffff1673ffffffffffffffffffffffffffffffffffffffff1681526020016001820160009054906101000a900473ffffffffffffffffffffffffffffffffffffffff1673ffffffffffffffffffffffffffffffffffffffff1673ffffffffffffffffffffffffffffffffffffffff1681526020016002820160009054906101000a900473ffffffffffffffffffffffffffffffffffffffff1673ffffffffffffffffffffffffffffffffffffffff1673ffffffffffffffffffffffffffffffffffffffff1681526020016003820154815260200160048201548152602001600582018054612ce790614abd565b80601f0160208091040260200160405190810160405280929190818152602001828054612d1390614abd565b8015612d605780601f10612d3557610100808354040283529160200191612d60565b820191906000526020600020905b815481529060010190602001808311612d4357829003601f168201915b50505050508152602001600682018054612d7990614abd565b80601f0160208091040260200160405190810160405280929190818152602001828054612da590614abd565b8015612df25780601f10612dc757610100808354040283529160200191612df2565b820191906000526020600020905b815481529060010190602001808311612dd557829003601f168201915b50505050508152602001600782018054612e0b90614abd565b80601f0160208091040260200160405190810160405280929190818152602001828054612e3790614abd565b8015612e845780601f10612e5957610100808354040283529160200191612e84565b820191906000526020600020905b815481529060010190602001808311612e6757829003601f168201915b50505050508152602001600882018054612e9d90614abd565b80601f0160208091040260200160405190810160405280929190818152602001828054612ec990614abd565b8015612f165780601f10612eeb57610100808354040283529160200191612f16565b820191906000526020600020905b815481529060010190602001808311612ef957829003601f168201915b5050505050815260200160098201548152602001600a8201548152602001600b8201548152602001600c8201548152602001600d8201548152602001600e820160009054906101000a900460ff166009811115612f7657612f7561436b565b5b6009811115612f8857612f8761436b565b5b8152505090508060a0015195508060c0015194508060e0015193508061010001519250806101a0015191505091939590929450565b612fc561204e565b613004576040517f08c379a0000000000000000000000000000000000000000000000000000000008152600401612ffb90614a6e565b60405180910390fd5b61300d81613572565b50565b600073ffffffffffffffffffffffffffffffffffffffff168173ffffffffffffffffffffffffffffffffffffffff160361307f576040517f08c379a000000000000000000000000000000000000000000000000000000000815260040161307690614e65565b60405180910390fd5b6130898282613127565b156130c9576040517f08c379a00000000000000000000000000000000000000000000000000000000081526004016130c090614ef7565b60405180910390fd5b60018260000160008373ffffffffffffffffffffffffffffffffffffffff1673ffffffffffffffffffffffffffffffffffffffff16815260200190815260200160002060006101000a81548160ff0219169083151502179055505050565b60008073ffffffffffffffffffffffffffffffffffffffff168273ffffffffffffffffffffffffffffffffffffffff1603613197576040517f08c379a000000000000000000000000000000000000000000000000000000000815260040161318e90614e65565b60405180910390fd5b8260000160008373ffffffffffffffffffffffffffffffffffffffff1673ffffffffffffffffffffffffffffffffffffffff16815260200190815260200160002060009054906101000a900460ff16905092915050565b61320281600561301090919063ffffffff16565b8073ffffffffffffffffffffffffffffffffffffffff167f28b26e7a3d20aedbc5f8f2ebf7da671c0491723a2b78f47a097b0e46dee0714260405160405180910390a250565b61325c81600461301090919063ffffffff16565b8073ffffffffffffffffffffffffffffffffffffffff167f561138658ca49a8540dc70dcfe64c9026c1c5b9344642242dd6562970f9c127860405160405180910390a250565b6132b681600561369e90919063ffffffff16565b8073ffffffffffffffffffffffffffffffffffffffff167fe3f5ed5f263f1f01764a96edfc7d025f511ec5f7d180e8816908b78bcf74f09860405160405180910390a250565b61331081600261369e90919063ffffffff16565b8073ffffffffffffffffffffffffffffffffffffffff167f126174f6cf49c81cdb4a9214c6b8f037bef55b4ec31e4fc776cea2a1c8a88d5960405160405180910390a250565b61336a81600261301090919063ffffffff16565b8073ffffffffffffffffffffffffffffffffffffffff167fddbf200aa634dc3fb81cfd68583dd1040d1c751d335e1d86b631bde3e977fea860405160405180910390a250565b6133c481600161301090919063ffffffff16565b8073ffffffffffffffffffffffffffffffffffffffff167f2e0ded4123377a3c2bc9a26f1717655a129e2f20752924d42e730ec89c83dbd060405160405180910390a250565b61341e81600161369e90919063ffffffff16565b8073ffffffffffffffffffffffffffffffffffffffff167fa5e0f060af304ab17dd418c7927e3da3ae7868189bf387aee09ab179ccc572f260405160405180910390a250565b61347881600361301090919063ffffffff16565b8073ffffffffffffffffffffffffffffffffffffffff167f71ae26cad02663e3d92efd6ec56031a80d74a20c0ab4183faa8bf262261c9baa60405160405180910390a250565b6134d281600361369e90919063ffffffff16565b8073ffffffffffffffffffffffffffffffffffffffff167fdb7176e79cffef81cb01767dd0447a0b24bb72ca9778d4b245581086b2a7e6db60405160405180910390a250565b61352c81600461369e90919063ffffffff16565b8073ffffffffffffffffffffffffffffffffffffffff167f2fed5abf6a80d6dfe30b4895481b2fc5d7dce5f8f7b931832f4a2947d5040c7f60405160405180910390a250565b600073ffffffffffffffffffffffffffffffffffffffff168173ffffffffffffffffffffffffffffffffffffffff16036135e1576040517f08c379a00000000000000000000000000000000000000000000000000000000081526004016135d890614f89565b60405180910390fd5b8073ffffffffffffffffffffffffffffffffffffffff1660008054906101000a900473ffffffffffffffffffffffffffffffffffffffff1673ffffffffffffffffffffffffffffffffffffffff167f5c486528ec3e3f0ea91181cff8116f02bfa350e03b8b6f12e00765adbb5af85c60405160405180910390a3806000806101000a81548173ffffffffffffffffffffffffffffffffffffffff021916908373ffffffffffffffffffffffffffffffffffffffff16021790555050565b600073ffffffffffffffffffffffffffffffffffffffff168173ffffffffffffffffffffffffffffffffffffffff160361370d576040517f08c379a000000000000000000000000000000000000000000000000000000000815260040161370490614e65565b60405180910390fd5b6137178282613127565b613756576040517f08c379a000000000000000000000000000000000000000000000000000000000815260040161374d9061501b565b60405180910390fd5b60008260000160008373ffffffffffffffffffffffffffffffffffffffff1673ffffffffffffffffffffffffffffffffffffffff16815260200190815260200160002060006101000a81548160ff0219169083151502179055505050565b604051806101e00160405280600073ffffffffffffffffffffffffffffffffffffffff168152602001600073ffffffffffffffffffffffffffffffffffffffff168152602001600073ffffffffffffffffffffffffffffffffffffffff1681526020016000815260200160008152602001606081526020016060815260200160608152602001606081526020016000815260200160008152602001600081526020016000815260200160008152602001600060098111156138785761387761436b565b5b81525090565b82805461388a90614abd565b90600052602060002090601f0160209004810192826138ac57600085556138f3565b82601f106138c557805160ff19168380011785556138f3565b828001600101855582156138f3579182015b828111156138f25782518255916020019190600101906138d7565b5b5090506139009190613a39565b5090565b604051806101a001604052806000815260200160008152602001600073ffffffffffffffffffffffffffffffffffffffff168152602001600073ffffffffffffffffffffffffffffffffffffffff168152602001600073ffffffffffffffffffffffffffffffffffffffff168152602001600073ffffffffffffffffffffffffffffffffffffffff168152602001600073ffffffffffffffffffffffffffffffffffffffff1681526020016000815260200160608152602001600081526020016000815260200160608152602001600060098111156139e6576139e561436b565b5b81525090565b828054828255906000526020600020908101928215613a28579160200282015b82811115613a27578251825591602001919060010190613a0c565b5b509050613a359190613a39565b5090565b5b80821115613a52576000816000905550600101613a3a565b5090565b6000604051905090565b600080fd5b600080fd5b600073ffffffffffffffffffffffffffffffffffffffff82169050919050565b6000613a9582613a6a565b9050919050565b613aa581613a8a565b8114613ab057600080fd5b50565b600081359050613ac281613a9c565b92915050565b600060208284031215613ade57613add613a60565b5b6000613aec84828501613ab3565b91505092915050565b60008115159050919050565b613b0a81613af5565b82525050565b6000602082019050613b256000830184613b01565b92915050565b6000819050919050565b613b3e81613b2b565b8114613b4957600080fd5b50565b600081359050613b5b81613b35565b92915050565b60008060408385031215613b7857613b77613a60565b5b6000613b8685828601613b4c565b9250506020613b9785828601613b4c565b9150509250929050565b600080fd5b600080fd5b6000601f19601f8301169050919050565b7f4e487b7100000000000000000000000000000000000000000000000000000000600052604160045260246000fd5b613bf482613bab565b810181811067ffffffffffffffff82111715613c1357613c12613bbc565b5b80604052505050565b6000613c26613a56565b9050613c328282613beb565b919050565b600067ffffffffffffffff821115613c5257613c51613bbc565b5b613c5b82613bab565b9050602081019050919050565b82818337600083830152505050565b6000613c8a613c8584613c37565b613c1c565b905082815260208101848484011115613ca657613ca5613ba6565b5b613cb1848285613c68565b509392505050565b600082601f830112613cce57613ccd613ba1565b5b8135613cde848260208601613c77565b91505092915050565b600080600080600080600060e0888a031215613d0657613d05613a60565b5b6000613d148a828b01613b4c565b975050602088013567ffffffffffffffff811115613d3557613d34613a65565b5b613d418a828b01613cb9565b965050604088013567ffffffffffffffff811115613d6257613d61613a65565b5b613d6e8a828b01613cb9565b955050606088013567ffffffffffffffff811115613d8f57613d8e613a65565b5b613d9b8a828b01613cb9565b945050608088013567ffffffffffffffff811115613dbc57613dbb613a65565b5b613dc88a828b01613cb9565b93505060a0613dd98a828b01613b4c565b92505060c0613dea8a828b01613b4c565b91505092959891949750929550565b600060208284031215613e0f57613e0e613a60565b5b6000613e1d84828501613b4c565b91505092915050565b600081519050919050565b600082825260208201905092915050565b6000819050602082019050919050565b613e5b81613b2b565b82525050565b6000613e6d8383613e52565b60208301905092915050565b6000602082019050919050565b6000613e9182613e26565b613e9b8185613e31565b9350613ea683613e42565b8060005b83811015613ed7578151613ebe8882613e61565b9750613ec983613e79565b925050600181019050613eaa565b5085935050505092915050565b60006020820190508181036000830152613efe8184613e86565b905092915050565b613f0f81613a8a565b82525050565b6000602082019050613f2a6000830184613f06565b92915050565b600067ffffffffffffffff821115613f4b57613f4a613bbc565b5b602082029050602081019050919050565b600080fd5b6000613f74613f6f84613f30565b613c1c565b90508083825260208201905060208402830185811115613f9757613f96613f5c565b5b835b81811015613fc05780613fac8882613b4c565b845260208401935050602081019050613f99565b5050509392505050565b600082601f830112613fdf57613fde613ba1565b5b8135613fef848260208601613f61565b91505092915050565b60008060006060848603121561401157614010613a60565b5b600061401f86828701613b4c565b935050602084013567ffffffffffffffff8111156140405761403f613a65565b5b61404c86828701613fca565b925050604084013567ffffffffffffffff81111561406d5761406c613a65565b5b61407986828701613cb9565b9150509250925092565b60008060006060848603121561409c5761409b613a60565b5b60006140aa86828701613b4c565b93505060206140bb86828701613b4c565b92505060406140cc86828701613b4c565b9150509250925092565b600081519050919050565b600082825260208201905092915050565b60005b838110156141105780820151818401526020810190506140f5565b8381111561411f576000848401525b50505050565b6000614130826140d6565b61413a81856140e1565b935061414a8185602086016140f2565b61415381613bab565b840191505092915050565b61416781613b2b565b82525050565b600060a08201905081810360008301526141878188614125565b9050818103602083015261419b8187614125565b905081810360408301526141af8186614125565b905081810360608301526141c38185614125565b90506141d2608083018461415e565b9695505050505050565b60006141e782613a6a565b9050919050565b6141f7816141dc565b811461420257600080fd5b50565b600081359050614214816141ee565b92915050565b6000602082840312156142305761422f613a60565b5b600061423e84828501614205565b91505092915050565b7f54686973206163636f756e7420686173206e6f20436f6e73756d657220726f6c60008201527f6500000000000000000000000000000000000000000000000000000000000000602082015250565b60006142a36021836140e1565b91506142ae82614247565b604082019050919050565b600060208201905081810360008301526142d281614296565b9050919050565b7f54686973206163636f756e7420686173206e6f204d616e75666163747572657260008201527f20526f6c65000000000000000000000000000000000000000000000000000000602082015250565b60006143356025836140e1565b9150614340826142d9565b604082019050919050565b6000602082019050818103600083015261436481614328565b9050919050565b7f4e487b7100000000000000000000000000000000000000000000000000000000600052602160045260246000fd5b7f546865204974656d206973206e6f7420696e2050726f6365737365642073746160008201527f7465210000000000000000000000000000000000000000000000000000000000602082015250565b60006143f66023836140e1565b91506144018261439a565b604082019050919050565b60006020820190508181036000830152614425816143e9565b9050919050565b7f54686973206163636f756e74206973206e6f7420746865206f776e6572206f6660008201527f2074686973206974656d00000000000000000000000000000000000000000000602082015250565b6000614488602a836140e1565b91506144938261442c565b604082019050919050565b600060208201905081810360008301526144b78161447b565b9050919050565b60006020820190506144d3600083018461415e565b92915050565b7f54686973206163636f756e7420686173206e6f2061204661726d657220526f6c60008201527f6500000000000000000000000000000000000000000000000000000000000000602082015250565b60006145356021836140e1565b9150614540826144d9565b604082019050919050565b6000602082019050818103600083015261456481614528565b9050919050565b7f4e487b7100000000000000000000000000000000000000000000000000000000600052601160045260246000fd5b60006145a582613b2b565b91506145b083613b2b565b9250827fffffffffffffffffffffffffffffffffffffffffffffffffffffffffffffffff038211156145e5576145e461456b565b5b828201905092915050565b7f54686973206163636f756e7420686173206e6f204469737472696275746f722060008201527f526f6c6500000000000000000000000000000000000000000000000000000000602082015250565b600061464c6024836140e1565b9150614657826145f0565b604082019050919050565b6000602082019050818103600083015261467b8161463f565b9050919050565b7f546865204974656d206973206e6f7420696e20426f756768744279446973747260008201527f696275746f722073746174652100000000000000000000000000000000000000602082015250565b60006146de602d836140e1565b91506146e982614682565b604082019050919050565b6000602082019050818103600083015261470d816146d1565b9050919050565b7f54686973206163636f756e7420686173206e6f2052657461696c657220726f6c60008201527f6500000000000000000000000000000000000000000000000000000000000000602082015250565b60006147706021836140e1565b915061477b82614714565b604082019050919050565b6000602082019050818103600083015261479f81614763565b9050919050565b7f546865204974656d206973206e6f7420696e205368697070656420737461746560008201527f2100000000000000000000000000000000000000000000000000000000000000602082015250565b60006148026021836140e1565b915061480d826147a6565b604082019050919050565b60006020820190508181036000830152614831816147f5565b9050919050565b7f546865204974656d206973206e6f7420696e20506c6163656420737461746521600082015250565b600061486e6020836140e1565b915061487982614838565b602082019050919050565b6000602082019050818103600083015261489d81614861565b9050919050565b7f54686520616d6f756e742073656e74206973206e6f742073756666696369656e60008201527f7420666f72207468652070726963650000000000000000000000000000000000602082015250565b6000614900602f836140e1565b915061490b826148a4565b604082019050919050565b6000602082019050818103600083015261492f816148f3565b9050919050565b600061494182613b2b565b915061494c83613b2b565b92508282101561495f5761495e61456b565b5b828203905092915050565b7f546865204974656d206973206e6f7420696e205265636569766564427952657460008201527f61696c6572207374617465210000000000000000000000000000000000000000602082015250565b60006149c6602c836140e1565b91506149d18261496a565b604082019050919050565b600060208201905081810360008301526149f5816149b9565b9050919050565b7f4f6e6c7920746865206f776e65722063616e20706572666f726d20746869732060008201527f6f7065726174696f6e0000000000000000000000000000000000000000000000602082015250565b6000614a586029836140e1565b9150614a63826149fc565b604082019050919050565b60006020820190508181036000830152614a8781614a4b565b9050919050565b7f4e487b7100000000000000000000000000000000000000000000000000000000600052602260045260246000fd5b60006002820490506001821680614ad557607f821691505b602082108103614ae857614ae7614a8e565b5b50919050565b7f546865204974656d206973206e6f7420696e205061636b656442794d616e756660008201527f6163747572657220737461746521000000000000000000000000000000000000602082015250565b6000614b4a602e836140e1565b9150614b5582614aee565b604082019050919050565b60006020820190508181036000830152614b7981614b3d565b9050919050565b7f4e487b7100000000000000000000000000000000000000000000000000000000600052603260045260246000fd5b7f546865204d616e75666163747572657220646f6573206e6f74206f776e20746860008201527f652063757272656e74205261774d6174657269616c2100000000000000000000602082015250565b6000614c0b6036836140e1565b9150614c1682614baf565b604082019050919050565b60006020820190508181036000830152614c3a81614bfe565b9050919050565b6000614c4c82613b2b565b91507fffffffffffffffffffffffffffffffffffffffffffffffffffffffffffffffff8203614c7e57614c7d61456b565b5b600182019050919050565b7f546865204974656d206973206e6f7420696e205061636b656420737461746521600082015250565b6000614cbf6020836140e1565b9150614cca82614c89565b602082019050919050565b60006020820190508181036000830152614cee81614cb2565b9050919050565b7f546865204974656d206973206e6f7420696e204861727665737465642073746160008201527f7465210000000000000000000000000000000000000000000000000000000000602082015250565b6000614d516023836140e1565b9150614d5c82614cf5565b604082019050919050565b60006020820190508181036000830152614d8081614d44565b9050919050565b7f546865207175616e74697479207265717569726564206973206e6f7420656e6f60008201527f7567680000000000000000000000000000000000000000000000000000000000602082015250565b6000614de36023836140e1565b9150614dee82614d87565b604082019050919050565b60006020820190508181036000830152614e1281614dd6565b9050919050565b7f416464726573732063616e6e6f74206265207a65726f20616464726573730000600082015250565b6000614e4f601e836140e1565b9150614e5a82614e19565b602082019050919050565b60006020820190508181036000830152614e7e81614e42565b9050919050565b7f54686973206164647265737320616c726561647920686173207468697320726f60008201527f6c65000000000000000000000000000000000000000000000000000000000000602082015250565b6000614ee16022836140e1565b9150614eec82614e85565b604082019050919050565b60006020820190508181036000830152614f1081614ed4565b9050919050565b7f546865206e6577204f776e65722063616e6e6f7420626520616464726573732060008201527f3000000000000000000000000000000000000000000000000000000000000000602082015250565b6000614f736021836140e1565b9150614f7e82614f17565b604082019050919050565b60006020820190508181036000830152614fa281614f66565b9050919050565b7f54686973206164647265737320646f6573206e6f74206861766520746869732060008201527f726f6c6520796574000000000000000000000000000000000000000000000000602082015250565b60006150056028836140e1565b915061501082614fa9565b604082019050919050565b6000602082019050818103600083015261503481614ff8565b905091905056fea2646970667358221220a8f84ec8fcd8232b8daab0e4717aaf6e507db23d06d55655b173f17aca4b364a64736f6c634300080d0033",
  "immutableReferences": {},
  "source": "pragma solidity ^0.8.13;\n\n\nimport '../accesscontrol/FarmerRole.sol';\nimport '../accesscontrol/ConsumerRole.sol';\nimport '../accesscontrol/DistributorRole.sol';\nimport '../accesscontrol/RetailerRole.sol';\nimport '../accesscontrol/ManufacturerRole.sol';\nimport '../core/Ownable.sol';\n\n\n// Define a contract 'Supplychain'\ncontract SupplyChain is Ownable, FarmerRole, DistributorRole, RetailerRole, ManufacturerRole, ConsumerRole {\n\n  // Define a variable called 'upc' for Universal Product Code (UPC) - for tracking a product\n  uint  upc;\n  // Define a variable called 'sku' for Stock Keeping Unit (SKU) - for tracking movements \n  uint  sku;\n\n  // Define a public mapping 'items' that maps the UPC to an Item.\n  mapping (uint => Product) products;\n\n  // Define a public mapping for 'rawmaterials' that map a lotNumber to each harvest time based on material id, timestamp and farmerid\n  mapping (uint => RawMaterial) rawMaterials;\n\n  // Define enum 'State' with the following values:\n  enum State\n  {\n    Harvested,                 // 0\n    Packed,                    // 1\n    BoughtByManufacturer,      // 2\n    Processed,                 // 3\n    PackedByManufacturer,      // 4\n    BoughtByDistributor,       // 5\n    Shipped,                   // 6\n    ReceivedByRetailer,        // 7\n    Placed,                    // 8\n    Purchased                  // 9\n    }\n\n  State constant defaultState = State.Harvested;\n\n  // Define 8 events with the same 8 state values and accept 'upc' as input argument\n  event Harvested(uint lotNumber);\n  event Packed(uint lotNumber);\n  event BoughtByManufacturer(uint lotNumber);\n  event Processed(uint upc);\n  event PackedByManufacturer(uint upc);\n  event BoughtByDistributor(uint upc);\n  event Shipped(uint upc);\n  event ReceivedByRetailer(uint upc);\n  event Placed(uint upc);\n  event Purchased(uint upc);\n\n  // Define a struct \"RawMaterial\" with the following fields\n  struct RawMaterial{\n    address payable ownerID;  // Metamask-Ethereum address of the current owner as the product moves through 8 stages\n    address payable farmerID; // Metamask-Ethereum address of the Farmer\n    address payable manufacturerID; // Address of the Manufacturer\n    uint    lotNumber;\n    uint    originFarmID;\n    string  originFarmName;  // Farmer Information\n    string  originFarmLatitude; // Farm Latitude\n    string  originFarmLongitude;  // Farm Longitude\n    string  materialName;\n    uint    materialID;\n    uint    rawMaterialMaxQuantity;\n    uint    rawMaterialQuantity;\n    uint    rawMaterialPrice;\n    uint    harvestTime;\n    State   materialState;\n  }\n\n  // Define a struct 'Item' with the following fields:\n  struct Product {\n    uint    sku;  // Stock Keeping Unit (SKU)\n    uint    upc; // Universal Product Code (UPC), generated by the Farmer, goes on the package, can be verified by the Consumer\n    address payable ownerID;\n    address payable distributorID;  // Metamask-Ethereum address of the Distributor\n    address payable manufacturerID; // Address of the Manufacturer\n    address payable retailerID; // Metamask-Ethereum address of the Retailer\n    address payable consumerID; // Metamask-Ethereum address of the Consumer\n    uint    productID;  // Product ID potentially a combination of upc + sku\n    string  productName;\n    uint    productBasePrice; // Product Price\n    uint    productFinalPrice;\n    uint[] materialsUsed;\n    State   productState;  // Product State as represented in the enum above\n  }\n\n  // Define a modifer that verifies the Caller\n  modifier verifyCaller (address _address) {\n    require(msg.sender == _address, \"This account is not the owner of this item\");\n    _;\n  }\n\n  // Define a modifier that checks if the paid amount is sufficient to cover the price\n  modifier paidEnough(uint _price) {\n    require(msg.value >= _price, \"The amount sent is not sufficient for the price\");\n    _;\n  }\n\n  modifier verifyQuantity(uint _lotNumber, uint _quantity) {\n    require(rawMaterials[_lotNumber].rawMaterialMaxQuantity >= _quantity, \"The quantity required is not enough\");\n    _;\n    uint maxQuantity = rawMaterials[_lotNumber].rawMaterialMaxQuantity;\n    rawMaterials[_lotNumber].rawMaterialMaxQuantity = maxQuantity - _quantity;\n  }\n\n  // Define a modifier that checks the price and refunds the remaining balance\n  modifier checkValueForManufacturer(uint _lotNumber) {\n    _;\n    uint price = rawMaterials[_lotNumber].rawMaterialPrice;\n    uint amountToReturn = msg.value - price;\n    rawMaterials[_lotNumber].manufacturerID.transfer(amountToReturn);\n  }\n\n  // Define a modifier that checks the price and refunds the remaining balance\n  modifier checkValueForDistributor(uint _upc) {\n    _;\n    uint price = products[_upc].productBasePrice;\n    uint amountToReturn = msg.value - price;\n    products[_upc].distributorID.transfer(amountToReturn);\n  }\n\n  // Define a modifier that checks the price and refunds the remaining balance\n  // to the Consumer\n  modifier checkValueForConsumer(uint _upc) {\n    _;\n    uint _price = products[_upc].productFinalPrice;\n    uint amountToReturn = msg.value - _price;\n    products[_upc].consumerID.transfer(amountToReturn);\n  }\n\n  modifier checkMaterialsOwner(uint[] memory _lotNumbers) {\n    for(uint i=0; i < _lotNumbers.length; i++) {\n      uint rmID = _lotNumbers[i];\n      require(rawMaterials[rmID].ownerID == msg.sender, \"The Manufacturer does not own the current RawMaterial!\");\n    }\n    _;\n  }\n\n  // Define a modifier that checks if an item.state of a upc is Harvested\n  modifier harvested(uint _lotNumber) {\n    require(rawMaterials[_lotNumber].materialState == State.Harvested, \"The Item is not in Harvested state!\");\n    _;\n  }\n\n  // Define a modifier that checks if an item.state of a upc is Packed\n  modifier packed(uint _lotNumber) {\n    require(rawMaterials[_lotNumber].materialState == State.Packed, \"The Item is not in Packed state!\");\n    _;\n  }\n\n  // Define a modifier that checks if an item.state of a upc is Processed\n  modifier processed(uint _upc) {\n    require(products[_upc].productState == State.Processed, \"The Item is not in Processed state!\");\n    _;\n  }\n\n  // Define a modifier that checks if an item.state of a upc is BoughtByManufacturer\n  modifier packed_by_manufacturer(uint _upc) {\n    require(products[_upc].productState == State.PackedByManufacturer, \"The Item is not in PackedByManufacturer state!\");\n    _;\n  }\n\n  // Define a modifier that checks if an item.state of a upc is BoughtByDistributor\n  modifier bought_by_distributor(uint _upc) {\n    require(products[_upc].productState == State.BoughtByDistributor, \"The Item is not in BoughtByDistributor state!\");\n    _;\n  }\n\n  // Define a modifier that checks if an item.state of a upc is Shipped\n  modifier shipped(uint _upc) {\n    require(products[_upc].productState == State.Shipped, \"The Item is not in Shipped state!\");\n    _;\n  }\n\n  // Define a modifier that checks if an item.state of a upc is ReceivedByRetailer\n  modifier received_by_retailer(uint _upc) {\n    require(products[_upc].productState == State.ReceivedByRetailer, \"The Item is not in ReceivedByRetailer state!\");\n    _;\n  }\n\n  modifier placed(uint _upc) {\n    require(products[_upc].productState == State.Placed, \"The Item is not in Placed state!\");\n    _;\n  }\n\n  // Define a modifier that checks if an item.state of a upc is Purchased\n  modifier purchased(uint _upc) {\n    require(products[_upc].productState == State.Purchased, \"The Item is not in Purchased state!\");\n    _;\n  }\n\n  // and set 'sku' to 1\n  // and set 'upc' to 1\n  // Using Ownable to define the ownwerm\n  constructor() {\n    sku = 1;\n    upc = 1;\n  }\n\n  // Define a function 'harvestItem' that allows a farmer to mark an item 'Harvested'\n  function harvestItem(uint    _originFarmID,\n                       string  memory _originFarmName,  \n                       string  memory _originFarmLatitude,\n                       string  memory _originFarmLongitude,\n                       string  memory _materialName,\n                       uint    _materialID,\n                       uint    _rawMaterialMaxQuantity) \n                       public \n                       onlyFarmer\n  {\n    // Add the new item as part of Harvest\n    RawMaterial memory newMaterial;\n    newMaterial.ownerID = payable(msg.sender);\n    newMaterial.farmerID = payable(msg.sender);\n    newMaterial.originFarmName = _originFarmName;\n    newMaterial.originFarmID = _originFarmID;\n    newMaterial.originFarmLatitude = _originFarmLatitude;\n    newMaterial.originFarmLongitude = _originFarmLongitude;\n    newMaterial.materialName = _materialName;\n    newMaterial.materialID = _materialID;\n    newMaterial.rawMaterialMaxQuantity = _rawMaterialMaxQuantity;\n    newMaterial.harvestTime = block.timestamp;\n    uint rmID = _originFarmID + _materialID + newMaterial.harvestTime;\n    newMaterial.lotNumber = rmID;\n    // Setting state\n    newMaterial.materialState = State.Harvested;\n    // Adding new Item to map\n    rawMaterials[rmID] = newMaterial;\n    // Emit the appropriate event\n    emit Harvested(rmID);\n  }\n\n  // Define a function 'packItem' that allows a farmer to mark an item 'Packed'\n  function packItem(uint _lotNumber,\n                    uint _quantity,\n                    uint _price)\n                    public \n                    onlyFarmer \n                    harvested(_lotNumber) \n                    verifyCaller(rawMaterials[_lotNumber].ownerID) \n                    verifyQuantity(_lotNumber, _quantity)\n  {\n    // Update the appropriate fields\n    RawMaterial storage existingMaterial = rawMaterials[_lotNumber];\n    existingMaterial.rawMaterialQuantity = _quantity;\n    existingMaterial.rawMaterialPrice = _price;\n    existingMaterial.materialState = State.Packed;\n    // Emit the appropriate event\n    emit Packed(_lotNumber);\n  }\n\n  // Define a function 'buyItem' that allows the disributor to mark an item 'Sold'\n  // Use the above defined modifiers to check if the item is available for sale, if the buyer has paid enough,\n  // and any excess ether sent is refunded back to the buyer\n  function buyMaterial(uint _lotNumber) \n                       public \n                       payable \n                       onlyManufacturer \n                       packed(_lotNumber) \n                       paidEnough(rawMaterials[_lotNumber].rawMaterialPrice) \n                       checkValueForManufacturer(_lotNumber)\n    {\n    // Update the appropriate fields - ownerID, distributorID, itemState\n    RawMaterial storage existingMaterial = rawMaterials[_lotNumber];\n    existingMaterial.ownerID = payable(msg.sender);\n    existingMaterial.manufacturerID = payable(msg.sender);\n    existingMaterial.materialState = State.BoughtByManufacturer;\n    // Transfer money to farmer\n    uint materialPrice = rawMaterials[_lotNumber].rawMaterialPrice;\n    rawMaterials[_lotNumber].farmerID.transfer(materialPrice);\n    // emit the appropriate event\n    emit BoughtByManufacturer(_lotNumber);\n  }\n\n\n  function processProduct(uint    _upc,\n                          uint[]  memory _lotNumbers,\n                          string  memory _productName)\n                          public\n                          onlyManufacturer\n                          checkMaterialsOwner(_lotNumbers)\n  {\n    Product memory newProduct;\n    newProduct.ownerID = payable(msg.sender);\n    newProduct.manufacturerID = payable(msg.sender);\n    newProduct.upc = _upc;\n    newProduct.sku = sku;\n    newProduct.productID = _upc + sku;\n    newProduct.materialsUsed = _lotNumbers;\n    newProduct.productName = _productName;\n    newProduct.productState = State.Processed;\n    // Increment sku\n    sku = sku + 1;\n    // Add newProduct to mapping\n    products[_upc] = newProduct;\n    // Emit proper event\n    emit Processed(_upc);\n  }\n\n  function packProduct(uint _upc,\n                       uint _productBasePrice)\n                       public\n                       onlyManufacturer\n                       processed(_upc)\n                       verifyCaller(products[_upc].ownerID) \n  {\n    Product storage existingProduct = products[_upc];\n    existingProduct.productBasePrice = _productBasePrice;\n    existingProduct.productState = State.PackedByManufacturer;\n    emit PackedByManufacturer(_upc);\n  }\n\n  // Define a function 'shipItem' that allows the distributor to mark an item 'Shipped'\n  // Use the above modifers to check if the item is sold\n  function buyProduct(uint _upc) \n                      public\n                      payable\n                      onlyDistributor\n                      packed_by_manufacturer(_upc)\n                      paidEnough(products[_upc].productBasePrice) \n                      checkValueForDistributor(_upc)\n    {\n    // Update the appropriate fields\n    Product storage existingProduct = products[_upc];\n    existingProduct.ownerID = payable(msg.sender);\n    existingProduct.distributorID = payable(msg.sender);\n    existingProduct.productState = State.BoughtByDistributor;\n    // Transfer money to farmer\n    uint productPrice = products[_upc].productBasePrice;\n    products[_upc].manufacturerID.transfer(productPrice);\n    // Emit the appropriate event\n    emit BoughtByDistributor(_upc);\n  }\n\n  function shipProduct(uint _upc) \n                       public\n                       onlyDistributor\n                       bought_by_distributor(_upc)\n                       verifyCaller(products[_upc].distributorID)\n    {\n    // Update the appropriate fields\n    Product storage existingProduct = products[_upc];\n    existingProduct.productState = State.Shipped;\n    // Emit the appropriate event\n    emit Shipped(_upc);\n  }\n\n  // Define a function 'receiveItem' that allows the retailer to mark an item 'Received'\n  // Use the above modifiers to check if the item is shipped\n  function receiveProduct(uint _upc) \n                       public\n                       onlyRetailer\n                       shipped(_upc)\n    {\n    // Update the appropriate fields - ownerID, retailerID, itemState\n    Product storage existingProduct = products[_upc];\n    existingProduct.ownerID = payable(msg.sender);\n    existingProduct.productState = State.ReceivedByRetailer;\n    existingProduct.retailerID = payable(msg.sender);\n    // Emit the appropriate event\n    emit ReceivedByRetailer(_upc);\n  }\n\n  function placeProduct(uint _upc,\n                        uint _productFinalPrice)\n                        public\n                        onlyRetailer\n                        received_by_retailer(_upc)\n                        verifyCaller(products[_upc].ownerID)\n  {\n    // Update the appropriate fields - ownerID, retailerID, itemState\n    Product storage existingProduct = products[_upc];\n    existingProduct.productFinalPrice = _productFinalPrice;\n    existingProduct.productState = State.Placed;\n    // Emit the appropriate event\n    emit Placed(_upc);\n  }\n\n  // Define a function 'purchaseItem' that allows the consumer to mark an item 'Purchased'\n  // Use the above modifiers to check if the item is received\n  function purchaseProduct(uint _upc) \n                        public \n                        payable \n                        onlyConsumer\n                        placed(_upc)\n                        paidEnough(products[_upc].productFinalPrice)\n                        checkValueForConsumer(_upc)\n    {\n    // Update the appropriate fields - ownerID, consumerID, itemState\n      Product storage existingProduct = products[_upc];\n      existingProduct.ownerID = payable(msg.sender);\n      existingProduct.productState = State.Purchased;\n      existingProduct.consumerID = payable(msg.sender);\n    // Emit the appropriate event\n      emit Purchased(_upc);\n  }\n\n  // Define a function 'fetchItemBufferTwo' that fetches the data\n  function fetchRawMaterial(uint _lotNumber) public view returns \n  (\n  string memory farmName,\n  string memory farmLatitude,\n  string memory farmLongitude,\n  string memory materialName,\n  uint    harvestTime\n  ) \n  {\n    // Assign values to the 9 parameters\n  RawMaterial memory existingMaterial = rawMaterials[_lotNumber];\n  farmName = existingMaterial.originFarmName;\n  farmLatitude = existingMaterial.originFarmLatitude;\n  farmLongitude = existingMaterial.originFarmLongitude;\n  materialName = existingMaterial.materialName;\n  harvestTime = existingMaterial.harvestTime;\n  \n  return \n  (\n  farmName,\n  farmLatitude,\n  farmLongitude,\n  materialName,\n  harvestTime\n  );\n  }\n\n\n  function fetchProductLots(uint _upc) public view returns \n  (\n    uint[] memory lotNumbers\n  )\n  {\n    Product memory existingProduct = products[_upc];\n    lotNumbers = existingProduct.materialsUsed;\n    return (lotNumbers);\n  }\n}\n",
  "sourcePath": "C:\\Users\\francesco.farinola\\OneDrive - Alma Mater Studiorum Universit di Bologna\\Documents\\GitHub\\SupplyChainDapp\\contracts\\base\\SupplyChain.sol",
  "compiler": {
    "name": "solc",
    "version": "0.8.13+commit.abaa5c0e.Emscripten.clang"
  },
  "schemaVersion": "3.4.7",
  "updatedAt": "2022-05-06T21:16:13.008Z",
  "networkType": "ethereum",
  "devdoc": {
    "kind": "dev",
    "methods": {},
    "version": 1
  },
  "userdoc": {
    "kind": "user",
    "methods": {
      "isOwner()": {
        "notice": "Check if the calling address is the owner of the contract"
      },
      "owner()": {
        "notice": "Look up the address of the owner"
      },
      "renounceOwnership()": {
        "notice": "Define a function to renounce ownerhip"
      },
      "transferOwnership(address)": {
        "notice": "Define a public function to transfer ownership"
      }
    },
    "version": 1
  }
}